:400000000080002011000000110500001105000008B5044B1A6803F53F5302331A6000F07FFA00BFFA46004010B5054C237833B9044B13B10448AFF300800123237010BDD2
:400040005081FF1F00000000A0130000084B10B51BB108490848AFF300800848036803B910BD074B002BFBD0BDE81040184700BF000000005481FF1FA0130000C880FF1F8C
:400080000000000008B562B600F0B8F82B4B1B78012B1BD013B1022B2FD0F7E700221146012000F09FF80023254A1370254C237000F0BCF82378DBB2012BE7D14FF49670AA
:4000C00001F0A4F801221D4B1A70DFE700220121104600F087F800F05BF81B4B1B7813F0FF0F06D00022184B1A700222134B1A70CCE70022114B1A70C8E701220021084655
:4001000000F070F800F05AF80D4A13780133DBB213700E4A127812F0FF0F0BD000210B4A1170092B02D9054B1970AFE70122034B1A70ABE70022014B1A70A7E77081FF1F9B
:400140006F81FF1F6C81FF1F6D81FF1F6E81FF1F08B50122034B1A7000F0AEFD00F07EFD08BD00BF6C81FF1F08B500F049FD732803D10122054B5A7004E06F2802D10122F0
:40018000024B9A7001F0B6F808BD00BF6C81FF1F10B500240CE000F089FC012000F08EFC0028FAD000F0A2FC034B23F814000134B4F5806FEFDB10BD8881FF1F38B500243C
:4001C0000AE0074D15F8140000F03CFD35F81400000A00F037FD0134B4F5806FF1DB38BD8881FF1F38B50D46144600F0C1FC284600F0B2FC204600F0A3FC38BD08B500F069
:400200005FFA00F0EFFC00F03DFC064800F046FD054801F061F8002211461046FFF7E2FF08BD00BF510100006901000008B501E000F0E6FC00F0FAFC0028F9D108BD00BF97
:40024000FEE700BFF0B40022174611E050F82760F3B226F0FF0608E001EB420511F812406D78A5550132013BDBB2002BF4D10137192FEBD9F0BC70470C4B1B78DBB203F0E5
:4002800007010B4A11701B09013213703022094B1A70012203F683031A70022280331A704422A3F28A231A70704700BFCF0100496E580040FD51004008B50A46002101F055
:4002C00066F808BD08B501F057F808BD38B50024314B1C80502202331A70192502331D8018232E4A137040F65F11023211800232137004222A492B48FFF7E4FF02222A4BD9
:400300001A7008224FF040231A70032103F500731970264B1B78DBB225490B70254B1A8041F25122023B1A800CE0234B1B7803F0010343EA440404F003044FF4F07000F0DD
:40034000DFFF013D0DB1032CEFD115B90320FFF777FF1A4B4FF480721A8007221A70002217490A704820023108701A700222033B1A7004220A331A70124A137843F00703DA
:400380001370013A137843F001031370013A137843F08003137038BD804000408640004040040048004100400043004008010049A146004022420040254200400440004068
:4003C00006400040A2430040012807D8044B53F820201844017A13780B431370704700BFA4130000012808D8044B53F820201844017A137823EA010313707047A4130000C9
:4004000038B572B6304A137843F00403137000240BE02E4863001A19510001440A46098AD068FFF749FF0134E4B2072CF1D928494FF09040FFF706FF0A25264B1D70042146
:400440002548FFF739FF04212448FFF735FF244A137843F0020313701032137843F002031370204C237843F040032370A2F58632513A137843F01003137008221A491B48BC
:40048000FFF720FF08221A491A48FFF71BFF2A4619491A48FFF716FF194A137843F008031370184D61232B70FFF710FF81232B700122154B1A70FFF7DFFE0E2221461348A0
:4004C000FFF700FF38BD00BFE8460040A41300006800004883580040007600400876004003500140A043004024040048F25100402C040048125100403404004820510040F9
:40050000224300400048004004000840B043004008B500F005FF03680C2B00D1FEE7FEE708B5104E104D16E029686B68AC68002204E051F8040B43F8040B0432A242F8D1B0
:40054000E868002203E0002143F8041B04328242F9D11035013E002EE6D100F0E7FEFFF791FDFEE7010000005418000008B5114A114B1A60114A136843F4007313600023CF
:400580000AE0032B03D80E4A52F8231000E00D490D4A42F8231001332F2BF2D90B4B1A780B4B1A70084A0B4B1A60FFF729FF00F05FFD08BD0004FA050CED00E014ED00E04A
:4005C00000000000110500000080FF1FBC760040C080FF1F08ED00E010B500F0BDFB074C0121207800F05EFD0121607800F05AFD002000F0CDFB00F065FB10BD7181FF1F97
:4006000070B505460E464FF48043020C0121084600F066FB094C2070A07801230246314600F0D0FD4FF4B742A9B2A07800F0DEFDA178207800F07EFD70BD00BF7181FF1FF2
:4006400070B505460E464FF48043020C0121084600F064FB094C6070E07801230246314600F0B0FD4FF4B742A9B2E07800F0BEFDE178607800F05EFD70BD00BF7181FF1FD4
:4006800010B500F0ADFB022000F074FB042000F097FB00F07DFD084CA07000F079FDE070064C4FF47A712046FFF7AAFF642104F57A70FFF7C5FF10BD7181FF1FE0130000BB
:4006C00008B5054B1B7923B9FFF7DAFF0122024B1A71FFF781FF08BD7181FF1F10B59DF80840012C51D1013809282ED8DFE800F0052D2D052D2D0F192D230F2B03D9254897
:40070000007840B222E02448007840B21EE00F2B03D92248007840B218E02148007840B214E00F2B03D91F48007840B20EE01E48007840B20AE00F2B03D91C48007840B25D
:4007400004E01B48007840B200E0002001EB401101FB02F1C90B8AB20D2B0BD8C3F10E0289B211418AB2611E124800EB810101338B7005E0631E0F4901EB83030F21997006
:40078000013C0C4B23F8242010BD002000F03CFD10BD00BF180100491C010049190100491D0100491A0100491E0100491B0100491F0100497881FF1FF8B5074600F0A8FDD2
:4007C00006460D4D2B7843F003032B700B4C237843F0030323700A4B1F70032000F02CFD2B7803F0FC032B70237803F0FC032370304600F091FDF8BDF8460040F946004008
:400800009258004038B500222F4B1A7101285AD138222E4B1A70042202331A70062201331A70002401331C7001331C703F2201331A7002331C7001331C7001331C700125D4
:400840000A331D70502203F527631A700A23204A13702C210132117001321470442103321170482101321170013215700232147001321470013213704322164B1A70522087
:40088000FFF79AFF5822144B1A7001331C700223124A137001321370114B1C7001331C70204600F0C3FA43F233320E4B1A602946052000F0DFFA2946BA2000F05FFB0A4961
:4008C000204600F0C3FC38BD7881FF1F004E00408558004091580040945800409A5800409C5800408889FF1F3D0B0000F0B583B0284D01272F70284E00247471102000F047
:40090000A7FA102000F028FB0721204600F0B2FC0422224B1A7001331C7007331C70204A137843F0180313701E4B1C7003F2F5231C7001331C700A22A3F209331A70013335
:400940001C7002331C705B2205331A705E2201331A7004331C701422A3F68C231A70009710234FF4004248F6F0510220FFF7B6FE2B78013B06EB83039A780B4B1A702B785D
:40098000013B36F82320094B1A802878FFF73AFF03B0F0BDCC80FF1F7881FF1F96580040075B0040935800400E4E00400C4E004070B500F0ADFC0646294B1B78294B1A78A4
:4009C00042F001021A701A7842F010021A7010331A7842F001021A701A7842F010021A70214D2B7843F002032B70204C237843F0020323701E4A137843F00303137003205C
:400A000000F01AFC2B7803F0FD032B70237803F0FD032370174A137843F0060313707A22154B1A70154A137843F0010313701032137843F0010313700F3A137843F00103F7
:400A400013701032137843F00103137001230C4A1360A2F5C0721360304600F05DFC70BDCC80FF1FAA430040F8460040F9460040915800407758004082580040A14300404D
:400A800080E200E008B5084B9B794BB9064BDB7913F0FF0F01D1FFF729FF0122024B9A71FFF786FF08BD00BF7881FF1F024A137843F0010313707047004E0040094B1B79D7
:400AC00013F0FF0F03D0074B5B79DBB203E0064B1B7803F00103012B01D00028EED01846704700BF7881FF1F014E00400E4B1B7803F00303012B03D80C4B188880B209E046
:400B00000A4A12780A49087842EA0020032B01D1084B1B78084B1B7913F0FF0F02D00022054B5A7100B27047144E0040104E0040114E0040124E00407881FF1F704700BF56
:400B4000044A137803F0EF03000100F0100018431070704720510040044A137803F0DF03400100F0200018431070704720510040044A137803F0BF03800100F04000184397
:400B800010707047205100407222074B1A70202203331A7006225E3B1A70472210331A7000224C331A7070478A64004010B500F0AFFB04460A4A137843F0200313700332B4
:400BC000137843F010031370023A137843F01003137000F03FFA204600F09EFB10BD00BF9A64004008B5054B1B7823B9FFF7CCFF0122024B1A70FFF7D9FF08BD8481FF1F42
:400C0000084B1B78DBB213F0200F06D0064A1078C0B213F01E0F02D17047002070470020704700BF6D6400404E640040044B1B7813F0200F01D0012070470020704700BF72
:400C40006D640040034B1B7813F0040FFAD1024B187070476B6400404C640040014B1878C009704782450040014B1B689865704708ED00E04001C0B2014B1870704700BF5E
:400C800006E400E04022014B1A60704700E100E04022014B1A60704780E100E010B50446FFF7F6FF2046FFF7DFFF0720FFF7E2FFFFF7E8FF10BD00BF4022014B1A60704730
:400CC00080E200E0054A137843F0040313701032137843F004031370704700BFA2430040F0B583B016461F460B4D00242C700194009423460A460146204600F027FA3A4625
:400D00003146287800F0FCF90221287800F0E6F9287803B0F0BD00BFCD80FF1FF0B583B016461F460B4C012525700023019300930A460146284600F009FA3A46314620787F
:400D400000F0DEF90221207800F0C8F9207803B0F0BD00BFCE80FF1F054A137843F0010313701032137843F001031370704700BFA8430040054B1A7802F0FD021A701A7872
:400D800000F0020010431870704700BF20580040014B1870704700BF805B0040064B1B78C3F3810303F19243063393F82031DBB2024A1370704700BF2058004008460040BF
:400DC00008B5064B1A7802F0F3021A701A7800F00C0010431870FFF7E1FF08BD2058004008B50020074B187001331870064A137843F008031370FFF7E3FF0220FFF7BAFF6E
:400E000008BD00BF20580040875A004010B5002404E02046FFF7E6FA0134E4B2012CF8D9FF22014B1A7010BDCF80FF1F10B50446FFF7ECFF2046FFF7C7FA014B1C7010BDA0
:400E4000CF80FF1F014B188880B2704780400040034B1A7800F0F80010431870704700BF82400040024B187800F00700704700BF8240004070B505460E46FFF7F3FF0446D3
:400E8000FFF7E0FFA84256D02B4B1B7803F0010294B900B185B938B9284B1D80284A137803F0BF03137070BD254A137843F040031370224B1D8070BD22B3002321490B70A8
:400EC00001240F310C7004310B700C390B7803F07F030B701A4B1B7813F0080F00D08DB9194B18800721013B1970164B1B7813F0010FFAD110490B7803F0FE030B7000215A
:400F0000104B19700C4B1B7813F0010F0DD00E4B1D800EB1032200E001220A4B1A70094B1B7813F0010FFAD170BD044B1D8002490B7813430B7070BDA24300408040004068
:400F4000824000400140004002400040014B188880B2704700410040034B1A7800F0F80010431870704700BF02410040024B187800F00700704700BF0241004070B505463D
:400F80000E46FFF7F3FF0446FFF7E0FFA84256D02B4B1B7803F0010294B900B185B938B9284B1D80284A137803F0BF03137070BD254A137843F040031370224B1D8070BDFE
:400FC00022B3002321490B70012413310C7004390B7008390B7803F07F030B701A4B1B7813F0080F00D08DB9194B18800721013B1970164B1B7813F0010FFAD110490B7804
:4010000003F0FE030B700021104B19700C4B1B7813F0010F0DD00E4B1D800EB1032200E001220A4B1A70094B1B7813F0010FFAD170BD044B1D8002490B7813430B7070BDFC
:40104000A143004000410040024100400140004002400040054A137843F0020313701032137843F002031370704700BFA24300400B4A7F2313708021517007E0DA0002F1FD
:40108000804202F5F042013BDBB21370002BF5D1DB0003F1804303F5F04300221A707047D080FF1F172815D831B103010A495A5C42F020025A5405E0030107495A5C02F07C
:4010C000DF025A540001044A835C43F00103835400207047012070471070004017280BD80001064A835C03F0F103490001F00E011943815400207047012070471070004094
:4011000041F6FF73994201D14FF4005141F6FF739A4201D14FF40052172808D8C00000F1804000F5EC408180C280002070470120704700BF172805D8034B03EB001041725C
:4011400000207047012070471070004017281BD810B4C00000F1804404F5EC44D201D2B201F07F01114321709DF804201201D2B203F00F03134363709DF8083003F00F036F
:40118000A3700020E07001E00120704710BC704710B500F0BDF80A4B5B78182B0BD9084A1478013B5370E30003F1804303F5F0431B78137000E0FF2400F0AEF8204610BD33
:4011C000D080FF1F10F0800F0CD111F4704F0BD1C00000F1804000F5F04001808270C37000207047012070470120704710F0800F08D1C00000F1804000F5F0408180C28071
:40120000002070470120704701BE704710B5044605E0084B186800F073F8A4F50044B4F5004FF6D8034B586800FB04F000F068F810BD00BFD880FF1F08B5034B1B7A00FBDA
:4012400003F000F05DF808BDD880FF1F70B504460E46074B1D681F2802D90020FFF7D4FF04F01F04103455F8240045F8246070BD08ED00E038B504460D46072902D9002012
:40128000FFF7C2FF1F2C02D90020FFF7BDFF04F01F0000F1604000F564406D01EDB2057038BD00BF014B1B685864704708ED00E04001C0B2014B1870704700BF01E400E033
:4012C0000222014B1A60704700E100E00222014B1A60704780E100E010B50446FFF7F6FF2046FFF7DFFF0720FFF7E2FFFFF7E8FF10BD00BF0222014B1A60704780E200E02C
:401300000230800803D000BF01380046FCD17047EFF3108072B6704780F31088704700BF014B1868704700BF4881FF1F0E4B70B51E460E4C0025E41AA410A54204D056F847
:40134000253098470135F8E700F072FA084B094C1E46E41AA4100025A54204D056F8253098470135F8E770BD3C1800003C1800003C1800004418000010B5431E0A449142C7
:4013800004D011F8014B03F8014FF8E710BD03460244934202D003F8011BFAE77047000000000000035B00402443004040000000005100401000305100404000C0510040B0
:4013C000100000000140001000140140000800400140000A004C014000020050014020008080818182828384848585868787888889898A8B8B8C8C8D8E8E8F8F9090919251
:40140000929393949595969697979899999A9A9B9B9C9C9D9E9E9F9FA0A0A1A1A2A3A3A4A4A5A5A6A6A7A7A8A8A9AAAAABABACACADADAEAEAFAFB0B0B1B1B2B2B3B3B4B4C0
:40144000B5B5B6B6B7B7B8B8B8B9B9BABABBBBBCBCBDBDBDBEBEBFBFC0C0C1C1C1C2C2C3C3C3C4C4C5C5C5C6C6C7C7C7C8C8C8C9C9CACACACBCBCBCCCCCCCDCDCDCECECED5
:40148000CFCFCFD0D0D0D0D1D1D1D2D2D2D2D3D3D3D4D4D4D4D5D5D5D5D6D6D6D6D6D7D7D7D7D8D8D8D8D8D8D9D9D9D9D9DADADADADADADADBDBDBDBDBDBDBDBDCDCDCDC92
:4014C000DCDCDCDCDCDCDDDDDDDDDDDDDDDDDDDDDDDDDDDDDDDDDDDDDDDDDDDDDDDDDDDDDDDDDDDDDDDDDDDDDDDDDDDDDDDDDDDCDCDCDCDCDCDCDCDCDCDBDBDBDBDBDBDBCA
:40150000DBDADADADADADADAD9D9D9D9D9D8D8D8D8D8D8D7D7D7D7D6D6D6D6D6D5D5D5D5D4D4D4D4D3D3D3D2D2D2D2D1D1D1D0D0D0D0CFCFCFCECECECDCDCDCCCCCCCBCBB3
:40154000CBCACACAC9C9C8C8C8C7C7C7C6C6C5C5C5C4C4C3C3C3C2C2C1C1C1C0C0BFBFBEBEBDBDBDBCBCBBBBBABAB9B9B8B8B8B7B7B6B6B5B5B4B4B3B3B2B2B1B1B0B0AFFC
:40158000AFAEAEADADACACABABAAAAA9A8A8A7A7A6A6A5A5A4A4A3A3A2A1A1A0A09F9F9E9E9D9C9C9B9B9A9A99999897979696959594939392929190908F8F8E8E8D8C8CC0
:4015C0008B8B8A8989888887878685858484838282818180807F7E7E7D7D7C7B7B7A7A79787877777676757474737372717170706F6F6E6D6D6C6C6B6A6A696968686766B9
:401600006665656464636362616160605F5F5E5E5D5C5C5B5B5A5A595958585757565555545453535252515150504F4F4E4E4D4D4C4C4B4B4A4A494948484747474646456D
:401640004544444343424242414140403F3F3E3E3E3D3D3C3C3C3B3B3A3A3A393938383837373736363535353434343333333232323131313030302F2F2F2F2E2E2E2D2D6D
:401680002D2D2C2C2C2B2B2B2B2A2A2A2A29292929292828282827272727272726262626262525252525252524242424242424242323232323232323232322222222222296
:4016C000222222222222222222222222222222222222222222222222222222222222222222222223232323232323232323242424242424242425252525252525262626262B
:40170000262727272727272828282829292929292A2A2A2A2B2B2B2B2C2C2C2D2D2D2D2E2E2E2F2F2F2F303030313131323232333333343434353535363637373738383814
:4017400039393A3A3A3B3B3C3C3C3D3D3E3E3E3F3F404041414242424343444445454646474747484849494A4A4B4B4C4C4D4D4E4E4F4F50505151525253535454555556C0
:401780005757585859595A5A5B5B5C5C5D5E5E5F5F6060616162636364646565666667686869696A6A6B6C6C6D6D6E6F6F70707171727373747475767677777878797A7A24
:4017C0007B7B7C7D7D7E7E7F80848A8F94989EA2A8ACB2B6BCC0C6CAD0D5DADEE4E8EEF2F8FCF8F2EEE8E4DEDAD4D0CAC6C0BCB6B2ADA8A29E98948F8A84807A76706B6631
:40180000615D58534E49443E39342F2A25211C17120D0803080D12171C21252A2F34393E44494E53585D61666B70767A43000000F8B500BFF8BC08BC9E4670474D00000095
:401840006D050000F8B500BFF8BC08BC9E4670472900000068180000C880FF1F8800000040080000000000000000000001FFFFFF7F800000030000000000E02EC05D00006D
:401880001800000000366E0100000000000000000000000000000000000000000000000000000000000000002C180000000000000000000000000000000000000000000027
:4018C00000000000000000000000000000000000000000000000000000000000000000000000000000000000E880FF1F000000000000000000000000000000000000000062
:4019000000000000000000000000000000000000000000000000000000000000000000000000000000000000000000000000000000000000000000000000000000000000A7
:401940000000000000000000000000000000000000000000000000000000000000000000000000000000000000000000000000000000000000000000000000000000000067
:401980000000000000000000000000000000000000000000000000000000000000000000000000000000000000000000000000000000000000000000000000000000000027
:4019C00000000000000000000000000000000000000000000000000000000000000000000000000000000000000000000000000000000000000000000000000000000000E7
:020000040003F7
:0200000480007A
:400000000145004001520040015A00400364004001010140010301403C0A01403E0B0140480C01403F0D0140660E01403A0F014001170140011901400640014005410140A9
:4000400002420140044301400644014006450140054601400147014008480140024C014003500140025101401702140187018A728B0F8D38E040E602000201C005180623DD
:40008000081F09080A200D1010011301140C151917E2183319E71A0C1B181C3F1DFF20082180240427E6281C29392A232BC42C032D41301031C0322C331F340F37383AA848
:4000C0003B083E0156025713580459045B045C115D105F018001900296029C02A602AA02B002B401BE11D401D804DB04DD10DF0103A805020640080209080A050D040E02F7
:400100000F8010851209130414201628180419D11A051B081E482249231028462BA03150330A38A83A0159015C205D025E4868056A206B1070D4710873049108940496A2AF
:40014000971098439A689D809F10A201A362A405A708AF02B013B10CB501B710C01EC2BFC46FCA0FCC0FCE0FD6F1EC0210011C0126012802340338204012410546CE470B9D
:40018000481C49FF4AFF4BFF4EF04F44500C58045A045C015D015F0166C06A406B028040832085018620881C8A028B018C408F2090109108920C93149440951097089809C4
:4001C000991C9A109D029E03A010A11CA414A504A708AB01AC0CAD01AE11B020B101B31CB440B520B61FB702B902BF50D418D604D804D904DB04DC11DD10DF010002010481
:4002000002090A250B800E020F80114A1508160819201A011BA21D101E0421092306281029832A012B08300132143380388439023B10460A4D404F80550456605A026345A4
:40024000874090809148920893819404968098409A0A9C029DB29E20A101A209A404A508B104B201B702C00FC29FC46DCA0FCC0FCE0FD030D210D601D80D001803080418B9
:4002800007100A060E03100811011230130E150C1640170318101A281B031C061E011F1021012202230626012B0C2E053007330F3418366037103A023B083E403F4040266C
:4002C000410542044401460E470C481449FF4AFF4BFF4C624DA04EF04F41500C580459045A045C115D015F016640670269106A306B106D106E106F1287018A08940A9502E0
:4003000096049A059C039E04A103A403A604AC03AD03AE0CB103B60FB982BA80BF41C001C740C9FFCA07CBFFCC40CD20CEF0CF05D008D804D904DA04DC01DD01DF01E04067
:40034000E1A8E240E320000801020204030205100604080209080A050D040F0A102111021401162218011A0C1B031E021F40210422082301278229102A022D402E022F424A
:40038000302032483302360838083A013E083F084085478049A04C204F0850445501560158805A8088408A04C04FC2EFC4ADCA95CC4FCE43D01DD20CE040EC10EC10338025
:4003C00036203C408C40CC30CE2086209440A620A780E6409440A78011409440A780C44033807C108F80CC08DE01E00200085220B410C008D404E8084502AE20B004D00152
:40040000EA04A5022440270494409F04A940AB80B704C8A0B502EC0800020C020E02000E100200000000000000003000000B0B00000000000200F172020002000000000050
:40044000BB001801000000000000000000000000000000000000000000000000000000000000000000000000000000000000000000000000000000000000000000000000A8
:40048000000000000000000000000000000000000000000000000000000000000000000000000000000000000000000000000000000000000000000000000000000000003C
:4004C00000000000000000000000000000000000000000000000000000000000000000000000000000000000000000000000000000000000000000000000000000000000FC
:4005000000000000000000000000000000000000000000000000000000000000000000000000000000000000000000000000000000000000000000000000000000000000BB
:40054000000000000000000000000000000000000000000000000000000000000000000000000000000000000000000000000000000000000000000000000000000000007B
:0200000490006A
:0400000000004005B7
:0200000490105A
:04000000BC90ACAF55
:0200000490303A
:0200000034F0DA
:0200000490402A
:4000000000000000000000000000000000000000000000000000000000000000000000000000000000000000000000000000000000000000000000000000000000000000C0
:400040000000000000000000000000000000000000000000000000000000000000000000000000000000000000000000000000000000000000000000000000000000000080
:400080000000000000000000000000000000000000000000000000000000000000000000000000000000000000000000000000000000000000000000000000000000000040
:4000C0000000000000000000000000000000000000000000000000000000000000000000000000000000000000000000000000000000000000000000000000000000000000
:0200000490501A
:0C00000000012E16006900012E20355969
:00000001FF